:10000300000000FE82929292FE92929282FE000083
:100013000000007F80401E1212121E00001F60802D
:10002300008080808080808080808080808080804D
:1000330000000000000000000000000000000000BD
:100043000000000808080808080808080808000055
:1000530000101010101010101010101010101010AD
:1000630000000484848484848484848484840400D9
:10007300002020202020202020202020202020209D
:100083000000FC040404FC040404FC040404FC0059
:1000930000007F22222221202020202324287F00E9
:1000A30000000202C2424242427EC2424242020077
:1000B300004040407F4040404040477840404040FF
:1000C300000202FA96929394FA929A9692930408F3
:1000D30000001C2444240404FF0C1424244740403F
:1000E300000404C4445F444444C4445F444444049B
:1000F300000000070810080000FF000000000000D7
:100103000000040404FF5454545454FF0404040032
:100113000011118985939191FD9191938589111115
:100123000008F808088F708428B4A4FFA4A4A420AE
:10013300008040330C1320408404057E88490A0460
:100143000018A848280E092848982090FF1010107E
:1001530000404242427E4242424040007F8142028E
:100163000000FF0000F840484848FF48484E504010
:1001730000007F80400F001E2212FF02023E00009B
:1001830000404020900C030C90204000CC424040A3
:1001930000007040404142443F0010207F000000B7
:1001A300000000F8494A4C48F8484C4A49F8000016
:1001B3000010101312121212FF1212121213101047
:1001C3000000202020203F2020202020FE000000CF
:1001D3000000000000FE0202020202021F60800013
:1001E30000000000FE020202FE001090FFD010107B
:1001F300007840403F0000001F608300FF000304BD
:10020300000000F888888888FF88888888F80000BC
:1002130000F0809F888888887F080808081F0000EE
:1002230000808082868A92A2E28282828282828097
:1002330000000000000000007F804000000000007C
:10024300000004E4242CB4242625B42C24E4040064
:100253000000007F82411E1212121E0102FF0000E5
:1002630000000000848C545424A4574C8890000050
:10027300000101013E42824202071A22428001012B
:10028300000000F80808FF4808004848FF880808ED
:10029300000FC4230003C0230408C020070865819E
:1002A300000000F01010101010FF101010101000BC
:1002B3000000003F408040200001061820408000DD
:1002C300003050131498909096919090961130406E
:1002D30000040404040405067E84440404040404A2
:1002E3000004E42424BCC6051CE484008C026010D2
:1002F300008081462918264182FF0000017E040404
:1003030000000404D454545454545454474C1020FF
:1003130000F040300F00000000000000000000006B
:1003230000028282828282FA8282828202FE00003C
:10033300004040584440407F40404040401F608060
:100343000080848484B4C4848685E4948484040013
:10035300000000000000000000000000001F60809B
:10036300000000007E424242424242427E000000C0
:100373000000FE424242FE000000FE424242FE00F6
:10038300002020A09E8282829EA04000CC4240405A
:10039300008080414628102C434088903F00000095
:1003A300004040404040FF4040404000CC4240407D
:1003B300000000000000FF00000010207F0000008C
:1003C300006086081020808282FE8282FE82828004
:1003D300000C10214284800000FF00000F30408099
:1003E3000008F808088F708428B4A4FFA4A4A420EC
:1003F300008040330C1320408404057E88490A049E
:10040300008084444424140CFF0C1424444484804A
:100413000008080808090B0D798949090808080824
:10042300001E72D25EF25E52521E00FC8484FC00F7
:100433000001FD55555755FD0911003F10103F00B0
:10044300004040464850C0407F40C058444240406E
:100453000078404040403F00000007182040808063
:100463000000FC04042424E4374810865A22FE00CA
:1004730000003F40815D111F111D01070804FF00AB
:10048300000060302820232428302000C00C020004
:10049300000000FF4141414141FF0000007F020293
:1004A300000082828282FE82828202008C026010BD
:1004B3000040404040407F4040404040017E0404B3
:1004C30000001020408000C4FA09C848484040009A
:1004D30000202010080403007F804106081020201C
:1004E3000000BEC2A2829EA2424848FF484848403C
:1004F30000404F484848484F4044447F201F608095
:1005030000008080FE82828282F20260800C020000
:1005130000003F408848080808080800017E0202DE
:100523000008C80A0908FF080888888888F80000B6
:1005330000F8412618162140801F2010001F6080FC
:100543000004F49494F49FF49494F40433C4881052
:1005530000320AE2829A86827202324200FF00016E
:100563000000FF0000F800080878880E8948280872
:1005730000007F80400F0000006019060910204032
:1005830000008888FF889C2002F29292FE9292F2E9
:10059300004848484F484848404744445F24548FE4
:1005A3000080804020504844C3444850204080800D
:1005B300000060120A0202027F8242021A224000F5
:1005C3000000020232420202FE0202621202020032
:1005D3000001010101010101FF010101010101010B
:1005E3000000FF0000F800080878880E89482808F2
:1005F30000007F80400F00000060190609102040B2
:10060300000C34A424242424A665A4A424242C109C
:1006130000202010110A047F8952142429494940DB
:1006230000000000000000000000000000000000C7
:1006330000000000000000000000000000000000B7
:1006430000E010080810E000000F102020100F0039
:1006530000000000F8101000000020203F202000C0
:100663000070880808087000003021222428300018
:100673000030488888083000000E11202020180020
:100683000000F81020C0000000243F2424040700C9
:10069300000808888808F800000E1120202119009E
:1006A300000018888810E000000E112020110F00B0
:1006B300000838C808083800000000003F000000A8
:1006C3000070880808887000001C222121221C0069
:1006D30000E010080810E000000F11222231000092
:1006E30000F008080808F8080000010101213F2074
:1006F300000000000008F8080030202020203F20E0
:1007030000380808080830C0000810202020180707
:1007130000000000000000000000000000000000D6
:10072300001008E88888F8080018202320203F20BC
:10073300007088888888F80820300C0300203F2048
:1007430000F008080808F8080000010101213F2013
:0C0F850002080000020A0000020C00003C
:070F4200AF05120F49AF06D5
:100F4900C2B2D2A5C2A6C2A700008F800000D2A754
:010F59002275
:0F0EEE00F583E5822FF582E43583F583E493FFE6
:100EFD00C2B2D2A5D2A6C2A700008F800000D2A791
:010F0D0022C1
:100D5C00C2B3E4FF0FBF64FCC2B2D2B3E4FF0FBF57
:100D6C0064FC7FE2120F49E4FF0FBF64FC7FA11209
:100D7C000F497FC8120F497FA6120F497FA4120F8B
:100D8C00497FA2120F497FF8120F497F01120F49B8
:100D9C007F81120F497F23120F497F25120F497F44
:100DAC002F120F49E4FF0FBF64FC7F40120F497FE5
:0A0DBC00AF120F49E4FF0FBF64FC03
:010DC600220A
:100ECB00E4FEEE24B0FF120F497F10120F497F048E
:100EDB00120F49E4FDE4FF120EFD0DBD80F70EBEAF
:020EEB0008E01D
:010EED0022E2
:100F2900D3EF9400EE9400400F7D267C82DCFEDD39
:080F3900FAEF1F70EB1E80E8C7
:010F4100228D
:100F5A002092147F017E00120F290509E50970020B
:080F6A000508E4F50AF50B226D
:100F720020910F7F017E00120F29050BE50B7002F5
:030F8200050A223B
:100E6000E50B5401FD7C00E50964054508701DF59E
:100E700008F509E509C4F8540FC868FFE508C4542B
:100E8000F048FEEF2DF50DEC3EF50C22E509C4F817
:100E9000540FC868FFE508C454F048FEEF2DF50D67
:040EA000EE3CF50C23
:010EA400222B
:10075300E50C6003020CCFE50D120EA5078100081E
:100763000B01089910093E1109D2200A66210AFAE1
:10077300300B8E310C37400C374100000CCFE4FBBB
:100783007D07FF120E1A120E147B067D05E4FF127D
:100793000E1A7D04120E167B077D03E4FF120E1A58
:1007A3007B0A7D077F01120E1A7B0B7D067F0112E8
:1007B3000E1A7B0C7D057F01120E1A7B207D077FAD
:1007C30002120E1A7B217D067F02120E1A7B227DF6
:1007D300057F02120E1A7B087D077F03120E1A7B18
:1007E300097D067F03120E1A7B0D7D0B7F03120D0D
:1007F300CD7B047D0A7F03120DCDE4FB7D097F03CE
:10080300120DCD7B03020CC8E4FB7D07FF120E1A09
:10081300120E147B067D05E4FF120E1A7B027D0483
:10082300E4FF120E1A7B077D03E4FF120E1A7B0D01
:100833007D077F01120E1A7B0E7D067F01120E1AB1
:100843007B0F7D057F01120E1A7B237D077F02122A
:100853000E1A7B247D067F02120E1A7B317D057FE3
:1008630002120E1A7B037D077F03120E1A7B097D8A
:10087300067F03120E1A7B0D7D0B7F03120DCD7BBA
:10088300037D0A7F03120DCD7B017D097F03120DCA
:10089300CD7B05020CC8E4FB7D07FF120E1A7B0219
:1008A3007D06E4FF120E1A7B067D05E4FF120E1A85
:1008B3007B017D04E4FF120E1A7B077D03E4FF1224
:1008C3000E1A7B0E7D0F7F01120DCD7B0F7D0E7FE8
:1008D30001120DCD7B107D0D7F01120DCD7D0C120C
:1008E3000DC9120DC77B0D7D0A7F01120DCD7B252E
:1008F3007D077F02120E1A7B267D067F02120E1AD7
:100903007B277D057F02120E1A7B037D077F03126F
:100913000E1A7B097D067F03120E1A7B0D7D0B7F5A
:1009230003120DCD7B017D0A7F03120DCD7B017D6B
:10093300097F03120DCD7B07020CC8E4FB7D07FF83
:10094300120E1A7B027D06E4FF120E1A7B067D054A
:10095300E4FF120E1A7B027D04E4FF120E1A7B07DA
:100963007D03E4FF120E1A7B147D077F01120E1A1A
:100973007B157D067F01120E1A7B167D057F011202
:100983000E1A7B287D077F02120E1A7B297D067FB4
:1009930002120E1A7B2A7D057F02120E1A7B037D3B
:1009A300077F03120E1A7B097D067F03120E1A7B43
:1009B3000D7D0B7F03120DCD7B027D0A7F03120D8C
:1009C300CD7B017D097F03120DCD7B05020CC8E4AD
:1009D300FB7D07FF120E1A7B037D06E4FF120E1A3E
:1009E3007B067D05E4FF120E1A7B017D04E4FF12F2
:1009F3000E1A7B077D03E4FF120E1A7B177D077F18
:100A030001120E1A7B187D067F01120E1A7B197DC7
:100A1300057F01120E1A7B2B7D077F02120E1A7BB4
:100A23002C7D067F02120E1A7B317D057F02120E8A
:100A33001A7B087D077F03120E1A7B097D067F034D
:100A4300120E1A7B0D7D0B7F03120DCD7B057D0AE4
:100A53007F03120DCDE4FB7D097F03120DCD7B02D5
:100A6300020CC8E4FB7D07FF120E1A7B037D06E42C
:100A7300FF120E1A7B067D05E4FF120E1A7B027D20
:100A830004E4FF120E1A7B077D03E4FF120E1A7BA8
:100A93000A7D077F01120E1A7B0B7D067F01120E62
:100AA3001A7B0C7D057F01120E1A7B207D077F02C6
:100AB300120E1A7B217D067F02120E1A7B227D0500
:100AC3007F02120E1A7B037D077F03120E1A7B0926
:100AD3007D067F03120E1A7B0D7D0B7F03120DCD56
:100AE3007B017D0A7F03120DCD7B047D097F0312F9
:100AF3000DCD7B09020CC8E4FB7D07FF120E1A7BA8
:100B0300047D06E4FF120E1A7B067D05E4FF120E38
:100B13001A7B017D04E4FF120E1A7B077D03E4FFB9
:100B2300120E1A7B1A7D077F01120E1A7B1C7D069B
:100B33007F01120E1A7B317D057F01120E1A7B286D
:100B43007D077F02120E1A7B297D067F02120E1A81
:100B53007B2A7D057F02120E1A7B037D077F03121A
:100B63000E1A7B097D067F03120E1A7B0D7D0B7F08
:100B730003120DCD7B017D0A7F03120DCD7B017D19
:100B8300097F03120DCD7B07020CC8E4FB7D07FF31
:100B9300120E1A7B047D06E4FF120E1A7B067D05F6
:100BA300E4FF120E1A7B027D04E4FF120E1A7B0788
:100BB3007D03E4FF120E1A7B0A7D0F7F01120DCD18
:100BC3007B0B7D0E7F01120DCD7B0C7D0D7F011202
:100BD3000DCD7B0D7D0C7F01120DCD120DC77B0D4D
:100BE3007D0A7F01120DCD7B2D7D077F02120E1A28
:100BF3007B2A7D067F02120E1A7B2E7D057F021251
:100C03000E1A7B037D077F03120E1A7B097D067F75
:100C130003120E1A7B0D7D0B7F03120DCD7B017D1D
:100C23000A7F03120DCD7B017D097F03120DCD7B5E
:100C330005020CC8E4FB7D07FF120E1A7B057D0637
:100C4300E4FF120E1A7B067D05E4FF120E1A7B01E8
:100C53007D04E4FF120E1A7B077D03E4FF120E1AD4
:100C63007B1E7D077F01120E1A7B1F7D067F0112FB
:100C73000E1A7B317D057F01120E1A7B2F7D077FB4
:100C830002120E1A7B297D067F02120E1A7B307D1B
:100C9300057F02120E1A7B087D077F03120E1A7B53
:100CA300097D067F03120E1A7B0D7D0B7F03120D48
:100CB300CD7B027D0A7F03120DCDE4FB7D097F030B
:0D0CC300120DCD7B017D087F03120DCD22A7
:060E14007D067B01E4FFF6
:100E1A00E4F50FEF25E024B0F50EEDC454F0FEC45E
:100E2A00540F44F0541FFDEE540FFEE4FC120F421F
:100E3A00E50E2CFF120F49E4FAAF0F050F75F020EB
:100E4A00EBA42403F582E5F03400120EEE0ABA1080
:050E5A00E80CBC02D809
:010E5F002270
:060DC7007D0B7B0D7F0196
:100DCD00E4F50FEF25E024B0F50EED75F008A4FE67
:100DDD00C4540F44F0541FFDEE540FFEE4FC120FEB
:100DED0042E50E2CFF120F49E4FAAF0F050F75F017
:100DFD0010EBA42443F582E5F03406120EEE0ABA88
:060E0D0008E80CBC02D84D
:010E130022BC
:100F0E00120D5C120ECB120F5A120F72120E6012CD
:0B0F1E0007537F0F7E00120F2980EBAD
:03000000020CD01F
:0C0CD000787FE4F6D8FD75810F020D1747
:100EA500D083D082F8E4937012740193700DA3A3DC
:100EB50093F8740193F5828883E4737402936860F0
:060EC500EFA3A3A380DFF0
:100CDC00020F0EE493A3F8E493A34003F68001F211
:100CEC0008DFF48029E493A3F85407240CC8C33319
:100CFC00C4540F4420C8834004F456800146F6DFE8
:100D0C00E4800B0102040810204080900F85E47EE3
:100D1C00019360BCA3FF543F30E509541FFEE493DC
:100D2C00A360010ECF54C025E060A840B8E493A3A3
:100D3C00FAE493A3F8E493A3C8C582C8CAC583CACE
:100D4C00F0A3C8C582C8CAC583CADFE9DEE780BE86
:010F9100005F
:00000001FF
